:100000000C942A000C94D6180C94FD180C94241906
:100010000C9447000C9447000C9447000C941D0D61
:100020000C9447000C9447000C9447000C94D71C88
:100030000C9447000C94671D0C9447000C944700E7
:100040000C9447000C9447000C9447000C94470014
:100050000C94470011241FBECFE5D8E0DEBFCDBF12
:1000600012E0A0E6B0E0E4E0F5E402C005900D92F5
:10007000A43EB107D9F718E0A4EEB2E001C01D928A
:10008000AD32B107E1F70E9435210C9480220C9427
:100090000000EF92FF920F931F937B018C0120E0F1
:1000A00030E040E05FE40E94C50388238CF0C80183
:1000B000B70120E030E040E05FE40E94C1010E940F
:1000C00083049B01AC01205030404040504806C0A2
:1000D000C801B7010E9483049B01AC01B901CA01A8
:1000E0001F910F91FF90EF900895A0E0B0E0EBE733
:1000F000F0E00C94EB21DC012B01FA019C91923091
:1001000008F439C1EB018881823008F433C194309E
:1001100069F4843009F02FC111969C91119789815F
:10012000981709F428C1A5EBB1E025C1843009F482
:1001300021C18230A9F4923009F01DC19A01AD01AC
:1001400088E0EA010990AE01E90109929E0181501F
:10015000C1F7E201898111969C918923818308C1AD
:10016000923009F407C112962D903C901397EB0141
:100170008A819B811496AD90BD90CD90DC901797AD
:10018000EC80FD800E811F819101281B390BB90184
:1001900037FF04C066277727621B730B6032710537
:1001A0000CF061C0121613066CF537014801062EDB
:1001B00004C096948794779467940A94D2F721E0C8
:1001C00030E040E050E004C0220F331F441F551FB1
:1001D0006A95D2F721503040404050402E213F21B7
:1001E00040235123211531054105510521F021E01E
:1001F00030E040E050E079018A01E628F72808293C
:1002000019293CC0232BD1F1260E371E350146019A
:10021000062E04C096948794779467940A94D2F734
:1002200021E030E040E050E004C0220F331F441FC3
:10023000551F6A95D2F721503040404050402A2146
:100240003B214C215D21211531054105510521F04E
:1002500021E030E040E050E059016A01A628B728CB
:10026000C828D9280BC0821593052CF01C01AA249C
:10027000BB24650103C0EE24FF24870111969C91E5
:10028000D20111968C91981709F445C0992339F041
:10029000A80197012A193B094C095D0906C0A6016E
:1002A00095012E193F09400B510B57FD08C01182D3
:1002B0003382228224833583468357831DC081E0A5
:1002C00081833382228288279927DC01821B930B4A
:1002D000A40BB50B84839583A683B7830DC0220F2F
:1002E000331F441F551F24833583468357838281E0
:1002F000938101979383828324813581468157813D
:10030000DA01C9010197A109B1098F5F9F4FAF4F72
:10031000BF4328F30BC0918333822282EA0CFB1C7B
:100320000C1D1D1DE482F5820683178383E0808304
:10033000248135814681578157FF1AC0C901AA27F8
:1003400097FDA095BA2F81709070A070B0705695EF
:10035000479537952795822B932BA42BB52B848318
:100360009583A683B7838281938101969383828349
:10037000DF0101C0D201CD01CDB7DEB7E2E10C94BF
:100380000722A0E2B0E0E7ECF1E00C94F7216983EA
:100390007A838B839C832D833E834F835887E9E048
:1003A000EE2EF12CEC0EFD1ECE010196B7010E943F
:1003B000FB058E010F5E1F4FCE010596B8010E940E
:1003C000FB058A8991E089278A8BC701B801AE01B4
:1003D000475E5F4F0E9475000E942605A096E6E0EA
:1003E0000C941322A0E2B0E0E8EFF1E00C94F721C6
:1003F00069837A838B839C832D833E834F835887C5
:10040000F9E0EF2EF12CEC0EFD1ECE010196B701A6
:100410000E94FB058E010F5E1F4FCE010596B801AD
:100420000E94FB05C701B801AE01475E5F4F0E9405
:1004300075000E942605A096E6E00C941322A0E227
:10044000B0E0E5E2F2E00C94EB2169837A838B83E0
:100450009C832D833E834F835887CE010196BE0136
:10046000675F7F4F0E94FB05CE010596BE016F5E60
:100470007F4F0E94FB059985923088F089898230F0
:10048000C8F0943019F4823051F404C0843029F457
:10049000923081F485EB91E0C6C0923049F420E0BF
:1004A0009A858A89981321E02A87CE010996BBC0D4
:1004B000823049F420E09A858A89981321E02A8BBA
:1004C000CE014196B0C02D843E844F8458886D88FB
:1004D0007E888F88988CEE24FF248701AA24BB2471
:1004E000650140E050E060E070E0E0E0F0E0C10174
:1004F00081709070892BE9F0E60CF71C081D191D1E
:100500009A01AB012A0D3B1D4C1D5D1D80E090E062
:10051000A0E0B0E0E614F7040805190520F481E036
:1005200090E0A0E0B0E0BA01A901480F591F6A1F8E
:100530007B1FAA0CBB1CCC1CDD1C97FE08C081E0F5
:1005400090E0A0E0B0E0A82AB92ACA2ADB2A3196B6
:10055000E032F10549F0660C771C881C991C569412
:10056000479437942794C3CFFA85EA892B893C892D
:100570008B859C85280F391F2E5F3F4F17C0CA01FE
:1005800081709070892B61F016950795F794E79428
:1005900080E090E0A0E0B0E8E82AF92A0A2B1B2BC3
:1005A00076956795579547952F5F3F4F77FDE7CF36
:1005B0000CC0440F551F661F771F17FD4160EE0CDE
:1005C000FF1C001F111F21503040403090E05907A0
:1005D00090E0690790E4790760F32B8F3C8FDB0193
:1005E000CA018F779070A070B07080349105A1051A
:1005F000B10561F447FD0AC0E114F10401051105DC
:1006000029F0405C5F4F6F4F7F4F40781A8EFE1786
:1006100011F081E08A8F4D8F5E8F6F8F78A383E01A
:10062000898FCE0149960E942605A096E2E10C949E
:100630000722A8E1B0E0EFE1F3E00C94F321698335
:100640007A838B839C832D833E834F835887B9E0C5
:10065000EB2EF12CEC0EFD1ECE010196B7010E948F
:10066000FB058E010F5E1F4FCE010596B8010E945B
:10067000FB052985223008F47EC03989323010F418
:10068000B8017CC08A859A8989278A87243011F02D
:10069000223031F4231709F06EC065EB71E06EC0B3
:1006A000343039F41D861E861F86188A1C861B86E8
:1006B00004C0323021F484E08987B7015FC02B8504
:1006C0003C858B899C89281B390B3C872B87ED84C3
:1006D000FE840F851889AD88BE88CF88D88CEA142F
:1006E000FB040C051D0540F4EE0CFF1C001F111F40
:1006F000215030403C872B8720E030E040E050E044
:1007000080E090E0A0E0B0E460E070E0EA14FB0478
:100710000C051D0540F0282B392B4A2B5B2BEA18C2
:10072000FB080C091D09B695A79597958795EE0CC2
:10073000FF1C001F111F6F5F7F4F6F31710531F775
:10074000DA01C9018F779070A070B0708034910584
:10075000A105B10561F427FD0AC0E114F10401050A
:10076000110529F0205C3F4F4F4F5F4F20782D87B8
:100770003E874F87588BBE01675F7F4FCB010E943A
:1007800026056896EAE00C940F22A8E1B0E0EBECB5
:10079000F3E00C94F72169837A838B839C832D8308
:1007A0003E834F83588789E0E82EF12CEC0EFD1E26
:1007B000CE010196B7010E94FB058E010F5E1F4F0F
:1007C000CE010596B8010E94FB058985823040F074
:1007D0008989823028F0C701B8010E94730601C0E0
:1007E0008FEF6896E6E00C941322A8E1B0E0EBEFFF
:1007F000F3E00C94F72169837A838B839C832D83A8
:100800003E834F83588789E0E82EF12CEC0EFD1EC5
:10081000CE010196B7010E94FB058E010F5E1F4FAE
:10082000CE010596B8010E94FB058985823040F013
:100830008989823028F0C701B8010E94730601C07F
:1008400081E06896E6E00C941322A8E0B0E0EBE2C9
:10085000F4E00C94F4219B01AC0183E08983DA017C
:10086000C9018827B7FD83959927AA27BB27B82EEA
:10087000211531054105510519F482E089833AC0FB
:100880008823A9F0203080E0380780E0480780E81E
:10089000580729F460E070E080E09FEC30C0EE245F
:1008A000FF248701E21AF30A040B150B02C0790139
:1008B0008A018EE1C82ED12CDC82CB82ED82FE82B1
:1008C0000F831887C801B7010E94D7040197181633
:1008D000190684F4082E04C0EE0CFF1C001F111F23
:1008E0000A94D2F7ED82FE820F831887C81AD90ABC
:1008F000DC82CB82BA82CE0101960E942605289620
:10090000E9E00C941022ACE0B0E0E9E8F4E00C94EB
:10091000FB2169837A838B839C83CE010196BE0180
:100920006B5F7F4F0E94FB058D81823061F18230C9
:1009300050F1843021F48E81882351F12EC02F8113
:10094000388537FD20C06E812F3131051CF06623BC
:10095000F9F023C08EE190E0821B930B29853A8544
:100960004B855C8504C056954795379527958A95A4
:10097000D2F76623B1F050954095309521953F4FC1
:100980004F4F5F4F0EC020E030E040E050E009C024
:100990002FEF3FEF4FEF5FE704C020E030E040E093
:1009A00050E8B901CA012C96E2E00C941722EF92AC
:1009B000FF920F931F937B018C0180E0E81680E08B
:1009C000F80681E0080780E0180788F48FEFE81642
:1009D000F1040105110531F028F088E090E0A0E075
:1009E000B0E017C080E090E0A0E0B0E012C080E08E
:1009F000E81680E0F80680E0080781E0180728F094
:100A000088E190E0A0E0B0E004C080E190E0A0E0E8
:100A1000B0E020E230E040E050E0281B390B4A0B08
:100A20005B0B04C016950795F794E7948A95D2F767
:100A3000F701E354FE4F8081281B31094109510918
:100A4000C9011F910F91FF90EF900895DF92EF92EF
:100A5000FF920F931F93FC01E480F58006811781BC
:100A6000D1808081823048F480E090E0A0E1B0E065
:100A7000E82AF92A0A2B1B2BA5C0843009F49FC051
:100A8000823021F4EE24FF24870105C0E114F10433
:100A90000105110519F4E0E0F0E096C06281738170
:100AA0009FEF623879070CF05BC022E83FEF261B0E
:100AB000370B2A3131052CF020E030E040E050E0E7
:100AC0002AC0B801A701022E04C0769567955795F4
:100AD00047950A94D2F781E090E0A0E0B0E004C02E
:100AE000880F991FAA1FBB1F2A95D2F70197A1094A
:100AF000B1098E219F21A023B1230097A105B10543
:100B000021F081E090E0A0E0B0E09A01AB01282B59
:100B1000392B4A2B5B2BDA01C9018F779070A070BB
:100B2000B07080349105A105B10539F427FF09C0E3
:100B3000205C3F4F4F4F5F4F04C0215C3F4F4F4FF2
:100B40005F4FE0E0F0E02030A0E03A07A0E04A0785
:100B5000A0E45A0710F0E1E0F0E079018A0127C033
:100B60006038710564F5FB01E158FF4FD801C701FA
:100B70008F779070A070B07080349105A105B10599
:100B800039F4E7FE0DC080E490E0A0E0B0E004C0DE
:100B90008FE390E0A0E0B0E0E80EF91E0A1F1B1FF3
:100BA00017FF05C016950795F794E794319687E0EF
:100BB00016950795F794E7948A95D1F705C0EE242A
:100BC000FF248701EFEFF0E06E2F679566276795AA
:100BD000902F9F77D794DD24D7948E2F8695492F19
:100BE000462B582F5D29B701CA011F910F91FF9025
:100BF000EF90DF900895FC01DB014081518122815B
:100C0000622F6F7770E0221F2227221F9381892F86
:100C1000880F822B282F30E0991F9927991F119652
:100C20009C93119721153105A9F5411551056105D1
:100C3000710511F482E037C082E89FEF13969C9310
:100C40008E9312979A01AB0167E0220F331F441F66
:100C5000551F6A95D1F783E08C930DC0220F331F87
:100C6000441F551F12968D919C91139701971396CF
:100C70009C938E931297203080E0380780E04807DD
:100C800080E4580758F314962D933D934D935C934D
:100C9000179708952F3F310579F4411551056105E6
:100CA000710519F484E08C93089564FF03C081E01A
:100CB0008C9312C01C9210C02F57304013963C9357
:100CC0002E93129783E08C9387E0440F551F661F85
:100CD000771F8A95D1F7706414964D935D936D9349
:100CE0007C93179708951F93DC01FB019C91923030
:100CF00008F447C08081823008F443C0943051F436
:100D000011961C91843099F58181682F70E0611BE8
:100D100071093FC0843021F0923031F48230B9F152
:100D20008181882389F12DC011961C911197823001
:100D3000F1F081811817D9F412962D913C911397F7
:100D4000828193818217930794F028173907BCF0AA
:100D500014968D919D910D90BC91A02D248135818B
:100D600046815781281739074A075B0718F4112372
:100D700041F00AC082179307A407B50740F4112376
:100D800019F061E070E005C06FEF7FEF02C060E036
:100D900070E0CB011F9108958091E402882321F037
:100DA0008091E502811181E01092E4021092E50247
:100DB00008958F929F92AF92BF92CF92DF92EF925F
:100DC000FF920F931F93182F8AE062E040E00E9489
:100DD00096119093E7028093E60286EE882E82E0D9
:100DE000982E81E597E060E670E045E550E09401DB
:100DF000012FEE24FF24CC24DD24AA24BB240E944E
:100E0000E71685E197E068E670E045E550E094017B
:100E10000E94E7161F910F91FF90EF90DF90CF9007
:100E2000BF90AF909F908F900895CF92DF92EF92F6
:100E3000FF920F931F93DF93CF9300D0CDB7DEB710
:100E40007C011A82198200E010E06E010894C11C36
:100E5000D11C1FC0F70180819181B60140E050E0B4
:100E600020E00E947D10813011F001E011C00023CC
:100E700051F40FB6F8940F928091E5028F5F809342
:100E8000E5020F900FBE89819A8101969A8389832A
:100E90001F5F1330FCF288EC90E00E94E81510E030
:100EA000D9CF9F92AF92BF92CF92DF92EF92FF92F3
:100EB0000F931F93DF93CF9300D0CDB7DEB7982E5B
:100EC000C92EEE24FF24DD245E010894A11CB11C70
:100ED00023C0F80180819181B50140E050E020E01D
:100EE0000E94B10F8130C1F429813A812E153F054E
:100EF00019F0DD24D3940CC0DD2051F40FB6F89422
:100F00000F928091E4028F5F8093E4020F900FBEF6
:100F100079010894E11CF11C092D1C2DF801808138
:100F200091810E94790D8823A1F684EB90E00E94C4
:100F3000E815F2CFEF92FF920F931F93DC01159605
:100F4000ED91FC911697E680F7808701045F1F4FB3
:100F5000C8010E94180C89E193E0B8010E94C70BF8
:100F600020E0E091E802F091E902D70156969C91C9
:100F70008689981708F021E0822F1F910F91FF902A
:100F8000EF900895FF920F931F93CF93DF9399E013
:100F9000F92E21C0F894E0911E03F0911F03068101
:100FA0001781C8010C960E94180C7894E8012296CB
:100FB000CE010E94180CF80196898091EA028917E7
:100FC00010F49093EA029F9DC00111248F509D4F11
:100FD000BE010E94C70B809119038823D9F60E9495
:100FE000E4112091EB023091EC02821B930B909361
:100FF000EE028093ED0289E0F82E53C001969093A3
:10100000F0028093EF02215030403093EE022093A3
:10101000ED02892B09F03EC0209115033091160393
:1010200080911703909118039093160380931503F2
:1010300030931803209317032DC00580F681E02D0F
:10104000C681D7812091EF023091F0028A819B8185
:101050002817390730F1F8948E010E5F1F4FC80131
:101060000E94180C8C899D89892B21F0CE010C9649
:101070000E94180C78949E898091EA02891710F4D6
:101080009093EA029F9DC00111248F509D4FB8019B
:101090000E94C70BE0911503F0911603808188230D
:1010A00061F62091ED023091EE028091EF02909175
:1010B000F0022115310509F0A1CF9093EC02809345
:1010C000EB029091EA0229E006C0992319F41092EC
:1010D000EA0232C09150929FD0011124AF50BD4F0F
:1010E0008C91882391F39093EA021196ED91FC91F3
:1010F00012970280F381E02D1296FC93EE931197E4
:10110000CD010396E817F90731F482819381129695
:101110009C938E9311971196ED91FC9112970680F6
:10112000F781E02DF093E902E093E802208131811C
:10113000CF016789F9010995DF91CF911F910F9137
:10114000FF9008950F931F93CF93DF93EB010091CE
:10115000EF021091F002080F191F8091E8029091A0
:10116000E90202960E94180CE091E802F091E9026F
:10117000138302838091EF029091F002BF016E5FB2
:101180007F4F0817190728F48091170390911803CF
:1011900004C080911503909116030E94E60B2097DE
:1011A00049F06091E8027091E902645F7F4FCE01DF
:1011B0000E94E60BDF91CF911F910F910895AF929E
:1011C000BF92CF92DF92EF92FF920F931F93CF9334
:1011D000DF936C01B62EA42E8AE190E00E94FA0AF9
:1011E000EC01009711F48FEF59C08091E8029091C3
:1011F000E902892B21F5D093E902C093E80281EF3F
:1012000092E00E94B30B8AEF92E00E94B30B23E0BE
:10121000E22E23E0F22EC7010E94B30B0CE013E094
:10122000C8010E94B30B89E193E00E94B30BF092D6
:101230001603E09215031093180300931703EB2C89
:10124000BB2011F0EE24E394198E188EEE8AAF8A3B
:10125000FE01C192D1928F01CF010E94C30BCE013A
:101260000C960E94C30BD987C887DB8BCA8B82E0A0
:1012700090E08E1991099D878C879E898091EA0262
:10128000891710F49093EA0289E0989FC001112415
:101290008F509D4FB8010E94C70B81E0DF91CF9125
:1012A0001F910F91FF90EF90DF90CF90BF90AF9084
:1012B0000895FC010FB6F8940F922081318160955A
:1012C000709562237323718360830F900FBEC901F1
:1012D0000895FC01808191810895BA010E94590905
:1012E0000895CF93DF93EC010E94DE1106C08F8139
:1012F000988560E072E00E943B138A818823B9F7E9
:10130000CE010E94EA0A0E94F114DF91CF91089564
:10131000CF92DF92EF92FF920F931F93CF93DF93C1
:101320008B01EC0185E0E82EF12CEC0EFD1E0E94F5
:10133000DE11EF81F88588819981802B912B99832B
:10134000888300E010E024C0D280C3808081918136
:10135000BC016070AC0150702881398192FD05C0DC
:1013600024233523232B31F40FC0242335232417C2
:10137000350751F470FF02C0042B152B6881798169
:101380007260CF010E943B138D2D9C2D9C01F901B1
:10139000EE15FF05C9F60095109588819981802387
:1013A0009123998388830E94F11488819981DF9128
:1013B000CF911F910F91FF90EF90DF90CF90089504
:1013C000BA010E9488090895AF92BF92CF92DF922E
:1013D000EF92FF920F931F93CF93DF937B01A42E85
:1013E000B22E68018C010E94DE11F801208131814A
:1013F000C70182239323BB2021F4892B09F05AC013
:1014000004C08E159F0509F455C0C114D10459F4C8
:10141000E9011BC0C7018095909582239323F801B1
:10142000918380834AC0AA2019F060E071E002C075
:1014300060E070E0B11074606E297F29C8010296E7
:10144000A6010E94B014C0E0D0E00E94F114CD28A3
:1014500029F1882311F40E94200D0E94891291FD28
:101460001BC00FB6F8940F92F8018081918197010B
:1014700028233923BB2019F4232B19F50BC02E1573
:101480003F0541F41EC0E094F094E822F922F801EF
:10149000F182E0820F900FBEEC01D070CE01DF919F
:1014A000CF911F910F91FF90EF90DF90CF90BF9061
:1014B000AF900895AA2009F0ADCFE901CC24DD2436
:1014C000C4CFAA2001F7E6CF8F929F92AF92BF922E
:1014D000CF92DF92EF92FF920F931F93CF93DF9300
:1014E000F82EE92E8B015A014901C82ED92E0E94EF
:1014F000DE11F601C081D1818F2D9E2DB8010E9491
:101500008809C02BD12BC5018C239D238A159B05EF
:1015100069F4950120953095F601808191818223AF
:101520009323918380838824992410C0811491048B
:1015300051F0B5017560C6010296A4010E94B01475
:10154000C0E0D0E003C0F601C081D1810E94F11457
:101550008928F9F0882311F40E94200D0E94891235
:101560009C0191FD14C00FB6F8940F92F6012081F2
:101570003181C501822393238A159B0531F4A09400
:10158000B094A222B322B182A0820F900FBEE901D3
:10159000D070CE01DF91CF911F910F91FF90EF900E
:1015A000DF90CF90BF90AF909F908F900895CF9392
:1015B000DF938BE090E00E94FA0AEC01009731F093
:1015C000FC0111921192CF010E94B30BCE01DF9169
:1015D000CF91089508951092230310922203089545
:1015E0002DE734E08091220390912303281B390BCF
:1015F000C9010895CF93DF93EC010E94DE11809121
:10160000240390912503892B31F487E293E0909392
:101610002503809324032091220330912303CE01DC
:10162000820F931F44E08D37940770F42817390711
:1016300058F4C0912403D0912503C20FD31F909377
:1016400023038093220302C0C0E0D0E00E94F11483
:10165000CE01DF91CF9108959F92AF92BF92CF922A
:10166000DF92EF92FF920F931F93DF93CF9300D0FF
:1016700000D0CDB7DEB78C01EE24FF249BE7A92E66
:10168000B12CC12CD12C9924939403C081E0E82E75
:10169000F12CA982BA82CB82DC8289819A81AB81CA
:1016A000BC81895B9B46AC4FBF4F89839A83AB83D8
:1016B000BC8369817A818B819C812DEF3FEF4FEF55
:1016C0005FEF0E948F2169837A838B839C8369817A
:1016D0007A818B819C8127E030E040E050E00E94DD
:1016E000D021C901DA0189839A83AB83BC838981C4
:1016F0009A81AB81BC818B519747AE4FBF4F31F67A
:10170000E114F10409F0C2CF0FB6F8940F92F8017A
:1017100090820F900FBEBDCF8091A4071092A407B6
:10172000811181E00895AF92BF92CF92DF92EF9244
:10173000FF920F93082F8CE29BE060E770E045E595
:1017400050E024EA37E0EE24FF24CC24DD24AA2450
:10175000BB240E94E7160F91FF90EF90DF90CF908F
:10176000BF90AF900895FC019C012D5F3F4F3283E5
:1017700021838FEF9FEF9483838336832583308784
:10178000278310820895FC01118610860895AC010C
:10179000FC01A181B281FB01B383A28314968D91D8
:1017A0009C911597958384831496ED91FC911597E0
:1017B0007383628315967C936E931497FB01518714
:1017C0004087FA0180818F5F80830895CF93DF93F4
:1017D0009C01EB01488159818FEF4F3F580721F45D
:1017E000F901A781B0850DC0D90113961296ED912C
:1017F000FC911397808191814817590710F0DF0100
:10180000F5CF1296ED91FC911397FB83EA83D58374
:10181000C483BD83AC831396DC93CE931297398730
:101820002887F90180818F5F8083DF91CF910895B0
:10183000CF93DF93DC011896CD91DC911997129626
:101840004D915C91139714968D919C911597FA0187
:101850009583848314962D913C911597F9015383B8
:10186000428389819A818A179B0711F43A832983DD
:1018700019961C921E921897888181508883DF9157
:10188000CF910895FC0191E1908322E2229383E3BA
:10189000829362937293129280E88293129282E012
:1018A000829383E0829384E0829385E0829386E052
:1018B000829387E0829388E0829389E0829380E13B
:1018C0008293929382E1829383E1829384E1829373
:1018D00085E1829386E1829387E1829388E1829316
:1018E00089E1829380E2829381E28293229383E270
:1018F00082934293529386E2829387E2829388E2B4
:10190000829389E2829380E3829381E38293319789
:10191000CF0108951BBC8CE78ABD8BE08EBD89B7D3
:10192000806189BFA091A507B091A607CD91CDBFD9
:10193000DD91DEBFFF91EF91DF91CF91BF91AF912C
:101940009F918F917F916F915F914F913F912F91D7
:101950001F910F91FF90EF90DF90CF90BF90AF90CD
:101960009F908F907F906F905F904F903F902F90BF
:101970001F900F900FBE0F90089581E00895089575
:101980000F920FB6F8940F921F9211242F923F924C
:101990004F925F926F927F928F929F92AF92BF927F
:1019A000CF92DF92EF92FF920F931F932F933F936B
:1019B0004F935F936F937F938F939F93AF93BF9357
:1019C000CF93DF93EF93FF93A091A507B091A60764
:1019D0000DB60D920EB60D920E94AF13882311F032
:1019E0000E94F811A091A507B091A607CD91CDBF97
:1019F000DD91DEBFFF91EF91DF91CF91BF91AF916C
:101A00009F918F917F916F915F914F913F912F9116
:101A10001F910F91FF90EF90DF90CF90BF90AF900C
:101A20009F908F907F906F905F904F903F902F90FE
:101A30001F900F900FBE0F9008950E94C00C189534
:101A40000F920FB6F8940F921F9211242F923F928B
:101A50004F925F926F927F928F929F92AF92BF92BE
:101A6000CF92DF92EF92FF920F931F932F933F93AA
:101A70004F935F936F937F938F939F93AF93BF9396
:101A8000CF93DF93EF93FF93A091A507B091A607A3
:101A90000DB60D920EB60D920E94F811A091A507F9
:101AA000B091A607CD91CDBFDD91DEBFFF91EF9143
:101AB000DF91CF91BF91AF919F918F917F916F9166
:101AC0005F914F913F912F911F910F91FF90EF9058
:101AD000DF90CF90BF90AF909F908F907F906F904E
:101AE0005F904F903F902F901F900F900FBE0F90E0
:101AF00008950FB6F8940F92FC01828D0F900FBEDF
:101B00000895FC010FB6F8940F92928D0F900FBEBE
:101B1000838D891B0895FC01828D0895FC01828DBF
:101B200090E0882309F491E0892F0895FC01928DBB
:101B300020E0838D981709F421E0822F0895FC019D
:101B4000562FA72F248D2223B9F086819781820FEB
:101B5000911D97838683228133818217930720F01A
:101B60008081918197838683448D66817781852FDB
:101B70009A2F50E00E94222208950F931F93CF9333
:101B8000DF93EC018A8D882341F00E811F81CE0105
:101B90000E949F0D1F830E8381E0DF91CF911F91E3
:101BA0000F9108950F931F93CF93DF93FB018A0149
:101BB000EC018A8D882361F18C8D2E813F81280F65
:101BC000311D3F832E838A819B812817390720F09E
:101BD000888199819F838E838A8D81508A8F4C8DD5
:101BE0006E817F81CF0150E00E942222F801808126
:101BF000882369F48885882351F0CE0108960E94D5
:101C00009A07882321F081E0F801808301C081E0F8
:101C1000DF91CF911F910F9108951F93CF93DF9381
:101C2000EC01142F4C8D442369F488819981892B10
:101C300009F044C08A819B810E94B412982F1B82B4
:101C40001A823DC01123B1F48C819D8150E00E9425
:101C500022228C8D2C813D81280F311D3D832C83C8
:101C60008A819B812817390748F1888199819D8352
:101C70008C8324C08E819F8150E00E9422228C8D13
:101C800090E044275527481B590B8E819F81840F74
:101C9000951F9F838E83288139818217930730F4A3
:101CA0008A819B81840F951F9F838E83123031F42C
:101CB0008A8D882319F08A8D81508A8F90E08A8DD1
:101CC0008F5F8A8F892FDF91CF911F9108951F9386
:101CD000CF93DF93142FEC019A8D8B8D981788F496
:101CE000CE0140E00E940D0E112359F4898988230A
:101CF00041F0CE0141960E949A07482F811141E0A0
:101D0000142F812FDF91CF911F910895CF93DF93EF
:101D1000FB01EC01F8948A8D882371F4411551057B
:101D200041F06196CA01BE010E94A20878948CEF2E
:101D30002FC0789480E02CC07894F8948A8D882302
:101D400031F18C8D2E813F81280F311D3F832E83F1
:101D50008A819B812817390720F0888199819F8388
:101D60008E838A8D81508A8F4C8D6E817F81CF01C9
:101D700050E00E9422228885882341F0CE010896F7
:101D80000E949A07882311F08BEF01C081E07894BC
:101D9000DF91CF910895CF93DF93EC01F8940FB6C4
:101DA000F8940F928A8D9B8D0F900FBE891771F456
:101DB0004115510541F02896CA01BE010E94A208B2
:101DC00078948CEF1BC0789480E018C07894F894D5
:101DD0008A8D891710F080E010C0CE0140E00E948B
:101DE0000D0E8989882341F0CE0141960E949A0701
:101DF000882311F08BEF01C081E07894DF91CF91BF
:101E00000895CF93DF93EC0188819981009711F0B9
:101E10000E94EA0ACE010E94EA0ADF91CF9108955A
:101E20000F931F93CF93DF938A01EC018A8D882350
:101E3000E9F0CE010E949F0D8A8D81508A8F8D8D91
:101E40008F3F81F48885882381F0CE0108960E9417
:101E50006F13882351F00115110539F081E0F80165
:101E6000808304C08D8D8F5F8D8F81E0DF91CF9156
:101E70001F910F9108950F931F93CF93DF938A01C2
:101E8000EC019A8D8B8D981720F0223011F080E0B4
:101E900023C0CE01422F0E940D0E882331F0011580
:101EA000110519F081E0F80180838E8D8F3F81F458
:101EB0008989882381F0CE0141960E946F1388237F
:101EC00051F00115110539F081E0F801808304C05B
:101ED0008E8D8F5F8E8F81E0DF91CF911F910F915B
:101EE00008950F931F93CF93DF93EC010FB6F894EF
:101EF0000F928C010F5E1F4F0DC08989882369F0F6
:101F0000C8010E946F13882311F00E947F128E8DEA
:101F100081508E8F8E8D181684F38FEF8E8F0F90D9
:101F20000FBE0FB6F8940F928E01085F1F4F0DC0C1
:101F30008885882369F0C8010E946F13882311F0F7
:101F40000E947F128D8D81508D8F8D8D181684F398
:101F50008FEF8D8F0F900FBEDF91CF911F910F915B
:101F600008957F928F929F92AF92BF92CF92DF920D
:101F7000EF92FF920F931F93DF93CF9300D000D087
:101F80000F92CDB7DEB75B015D834C83722E8C015F
:101F900091E1C92ED12CC00ED11E20E07E01089403
:101FA000E11CF11C84E0882E912C8C0E9D1E01C03A
:101FB00021E00FB6F8940F92F801828D882389F101
:101FC000E680F780C801B5010E949F0D7720C1F41B
:101FD000F801828D8150828F80819181892B29F433
:101FE0000E94A112F80193838283F80180858823DF
:101FF000A1F0C80108960E946F13813071F40BC0E4
:10200000F801F782E6828189882339F0C6010E94AF
:102010006F13882311F00E94200D0F900FBE81E0F6
:1020200059C08C819D81892B19F40F900FBE51C02E
:10203000222319F4C7010E9441120F900FBE0E9483
:10204000DE110FB6F8940F92F801858D8F3F09F4D9
:10205000158EF801868D8F3F09F4168E0F900FBEF6
:10206000C701B4010E944C12882371F50FB6F89491
:102070000F92F801828D0F900FBE8823F9F4F801BA
:1020800080819181892B51F40FB6F8940F92F80159
:10209000828193810E94E9120F900FBE6C817D8135
:1020A000C6010E94D414C8010E94710F0E94F1144D
:1020B000882309F07DCF0E94200D7ACFC8010E94AD
:1020C000710F0E94F11474CFC8010E94710F0E9419
:1020D000F11480E00F900F900F900F900F90CF9120
:1020E000DF911F910F91FF90EF90DF90CF90BF9005
:1020F000AF909F908F907F9008956F927F929F9264
:10210000AF92BF92CF92DF92EF92FF920F931F9305
:10211000DF93CF9300D000D00F92CDB7DEB76B0125
:102120005D834C83922E8C0148E0E42EF12CE80E66
:10213000F91E20E05E010894A11CB11C34E0632E5E
:10214000712C6C0E7D1E01C021E00FB6F8940F9229
:10215000F801928D838D981718F0F2E09F16C9F45C
:10216000C801B601492D0E940D0E982FF8018189F2
:10217000882339F0C80141960E946F13813029F4F9
:1021800002C0992311F00E94200D0F900FBE81E034
:102190004CC08C819D81892B19F40F900FBE44C0D7
:1021A000222319F4C5010E9441120F900FBE0E9414
:1021B000DE110FB6F8940F92F801858D8F3F09F468
:1021C000158EF801868D8F3F09F4168E0F900FBE85
:1021D000C501B3010E944C12882309F50FB6F8948B
:1021E0000F92F801928D0F900FBEF801838D981712
:1021F00081F46C817D81C7010E94D414C8010E94C2
:10220000710F0E94F114882309F09ECF0E94200DC7
:102210009BCFC8010E94710F0E94F11495CFC80195
:102220000E94710F0E94F11480E00F900F900F90A8
:102230000F900F90CF91DF911F910F91FF90EF9032
:10224000DF90CF90BF90AF909F907F906F90089558
:10225000CF93DF938FE190E00E94FA0AEC010097A0
:10226000F9F01B821A82198218821D821C821F8239
:102270001E821A8E81E08B8F1C8E8FEF8D8F8E8F3A
:10228000CE0108960E94B30BCE0141960E94B30B7B
:10229000CE0160E070E040E050E020E00E947D1060
:1022A000CE01DF91CF910895CF93DF93EC010FB66C
:1022B000F8940F92EC8D2B8DE29FC0011124488180
:1022C0005981840F951F9B838A831A8E5D834C836B
:1022D00030E021503040F0E02E9FC0012F9F900D44
:1022E0003E9F900D1124480F591F5F834E838FEF3F
:1022F0008D8F8E8F662361F48885882389F0CE01C7
:1023000008960E946F13813059F40E94200D08C076
:10231000CE0108960E94B30BCE0141960E94B30BEA
:102320000F900FBE81E0DF91CF9108950F931F931F
:10233000CF93DF93182F062F8823E1F08FE190E0F1
:102340000E94FA0AEC010097A9F0019FC001112434
:1023500001960E94FA0A99838883009741F01B8FA7
:102360000C8FCE0161E00E9454119E0105C0CE0188
:102370000E94EA0A20E030E0C901DF91CF911F916D
:102380000F9108951F93162F60E042E00E9496116E
:10239000FC01009709F0128FCF011F9108950FB62D
:1023A000F8940F92009729F4E091A507F091A60701
:1023B00001C0FC010F900FBE868908958091AC0783
:1023C0008F5F8093AC0708950FB6F8940F92209119
:1023D000A9073091AA070F900FBEC9010895209157
:1023E000A9073091AA07C90108958091AE07089501
:1023F0008091AC07882321F081E08093A80708959D
:102400001092A80705C08091A70781508093A70765
:102410008091A70790E0FC0123E0EE0FFF1F2A95B3
:10242000E1F7E80FF91FEE54F84F8081882359F344
:102430009091A70789E0989FD0011124AE54B84F1E
:102440001196ED91FC9112970280F381E02D129686
:10245000FC93EE931197CD010396E817F90731F439
:102460008281938112969C938E9311971196ED9190
:10247000FC911297868197819093A6078093A50778
:102480000895FC018091AB0780838091A90790910A
:10249000AA07928381830895FC01DB010FB6F894AB
:1024A0000F924091A9075091AA079091AB078081A4
:1024B000981729F08181928148175907E0F421810A
:1024C00032816D917C911197CA01821B930B861703
:1024D000970788F4241B350B260F371F2D933C9349
:1024E0008091AB0780838091A9079091AA0792837E
:1024F000818380E001C081E00F900FBE089581E0EC
:102500008093A80708952091A5073091A607C901D7
:102510000895E091A507F091A60784859585A0917F
:10252000A507B091A607E091A507F091A6074689F7
:1025300027E030E0241B31091D963C932E931C9715
:1025400008958091A5079091A607892B39F0E09115
:10255000A507F091A60786A58F5F86A72091A507FE
:102560003091A607C90108950F931F93CF93DF936E
:10257000EC01009741F12EA521502EA79E898DA533
:10258000981709F12223F9F48E010E5F1F4FC8013D
:102590000E94180C2DA52E8B87E090E0821B9109DC
:1025A0009D878C878091A707821710F42093A70737
:1025B00089E0289FC00111248E54984FB8010E94D1
:1025C000C70B81E001C080E0DF91CF911F910F9197
:1025D00008950F931F93CF93DF93EC01009709F4B5
:1025E00045C0E091A507F091A6079E8986899817B6
:1025F000E8F58C859D8597FD0BC0E091A507F091CE
:10260000A607268987E090E0821B91099D878C8729
:102610008E8929E0829FC00111248E54984F2A850B
:102620003B8528173907E1F48E010E5F1F4FC80163
:102630000E94180CE091A507F091A60796899E8B41
:102640008091A707891710F49093A70789E0989FB6
:10265000C00111248E54984FB8010E94C70B06C0C8
:10266000E091A507F091A60786898E8BDF91CF9127
:102670001F910F9108950F931F93CF93DF93FC0148
:10268000706871836083C681D7810E94180C8E01A7
:102690000E5F1F4FC8010E94180C9E898091A707EA
:1026A000891710F49093A70789E0989FC00111241F
:1026B0008E54984FB8010E94C70BE091A507F09186
:1026C000A6079E898689891710F080E003C081E003
:1026D0008093A807DF91CF911F910F9108950F93D9
:1026E0001F93CF93DF93DC011596ED91FC91169724
:1026F000C681D7818E01045F1F4FC8010E94180C4C
:102700008091AC078823A1F48E010E5F1F4FC80192
:102710000E94180C9E898091A707891710F4909346
:10272000A70789E0989FC00111248E54984F02C0DA
:1027300087E098E0B8010E94C70BE091A507F091EF
:10274000A6079E898689891710F080E003C081E082
:102750008093A807DF91CF911F910F910895CF9299
:10276000DF92EF92FF920F931F93CF93DF938091AD
:10277000AC07882309F0A7C08091A9079091AA0708
:1027800001969093AA078093A907E090A907F0907B
:10279000AA07E114F10479F52091030830910408A7
:1027A000809105089091060890930408809303088F
:1027B00030930608209305088091AB078F5F8093C4
:1027C000AB07E0910308F09104088081882319F495
:1027D0008FEF9FEF0CC0E0910308F0910408058093
:1027E000F681E02D0680F781E02D82819381909320
:1027F000BE028093BD028091BD029091BE02E81698
:10280000F90608F449C0DD2449E0C42EE09103082C
:10281000F09104088081882319F48FEF9FEF0EC098
:10282000E0910308F09104080580F681E02DC6814F
:10283000D7818A819B81E816F90628F49093BE021D
:102840008093BD022AC08E010E5F1F4FC8010E94F7
:10285000180C8C899D89892B21F0CE010C960E9441
:10286000180C9E898091A707891710F49093A707E9
:102870009C9DC00111248E54984FB8010E94C70B33
:10288000E091A507F091A6079E898689981708F41C
:10289000BDCFDD24D394BACFDD24E091A507F0911C
:1028A000A607868990E0FC0133E0EE0FFF1F3A9502
:1028B000E1F7E80FF91FEE54F84F8081823048F0BD
:1028C000DD24D39406C08091AD078F5F8093AD0760
:1028D000DD248091A807882311F0DD24D3948D2D69
:1028E000DF91CF911F910F91FF90EF90DF90CF90EC
:1028F0000895CF93DF93EC01E091A507F091A6072F
:10290000938382838091A9079091AA07C817D9075A
:1029100068F480910508909106086091A507709170
:10292000A6076E5F7F4F0E94E60B17C080910308D9
:10293000909104086091A5077091A6076E5F7F4F84
:102940000E94E60B8091BD029091BE02C817D90784
:1029500020F4D093BE02C093BD02DF91CF910895C1
:102960000F931F938A01E091A507F091A607706865
:10297000758764876091A5077091A607645F7F4F94
:102980000E94C70B8091A5079091A60702960E940E
:10299000180C8091A9079091AA07800F911F0E949F
:1029A00079141F910F9108950F931F938B016091DC
:1029B000A5077091A607645F7F4F0E94E60B809188
:1029C000A5079091A60702960E94180C8091A9076E
:1029D0009091AA07800F911F0E9479141F910F9167
:1029E0000895EF92FF920F931F93CF93DF930FB64B
:1029F000F8940F928091AC0781508093AC0780913E
:102A0000AC07882309F055C08091AE07882359F59B
:102A100050C0E0910C08F0910D08C681D781CE011D
:102A20000C960E94180C8E010E5F1F4FC8010E9469
:102A3000180C9E898091A707891710F49093A70717
:102A40009E9DC00111248E54984FB8010E94C70B5F
:102A5000E091A507F091A6079E898689981738F01E
:102A6000F092A80704C059E0E52EFF24F39480916A
:102A70000708882371F68091AD07882369F411C097
:102A80000E94AF13882311F01093A8078091AD071F
:102A900081508093AD0701C011E08091AD0788237C
:102AA00079F78091A807813021F40E94200D81E000
:102AB00001C080E00F900FBEDF91CF911F910F9169
:102AC000FF90EF900895EF92FF920F931F93DF9383
:102AD000CF930F92CDB7DEB7673008F066E00FB640
:102AE000F8940F92009729F4E090A507F090A607BC
:102AF00001C07C01D7019D962C91261709F45EC078
:102B00002617A0F48091A5079091A607E816F9066C
:102B100011F4198215C0E091A507F091A60719825A
:102B20008689681768F0B1E0B9830AC08091A5076B
:102B30009091A6071982E816F90611F4E1E0E983FD
:102B4000D70156963C915697231711F456966C93DD
:102B5000F70165A78485958597FD06C087E090E01D
:102B6000861B91099587848789E0389FC0011124CD
:102B70008E54984FD7011A962D913C911B97281788
:102B80003907B9F487010E5F1F4FC8010E94180C66
:102B9000F70196898091A707891710F49093A707EA
:102BA00089E0989FC00111248E54984FB8010E946B
:102BB000C70BF981F13011F40E94200D0F900FBE68
:102BC0000F90CF91DF911F910F91FF90EF9008959B
:102BD0000F931F93CF93DF93EC010097C9F080917F
:102BE000AC078F5F8093AC070091A9071091AA07EB
:102BF0008091A5079091A60702960E94180CCE011D
:102C0000800F911F0E9479140E94F114882311F4FF
:102C10000E94200DDF91CF911F910F910895CF93C6
:102C2000DF93FC01EB018091AC078F5F8093AC07D1
:102C30002091A9073091AA0780819181C80FD91FDF
:102C40002817390728F4C817D90728F080E008C0EA
:102C5000C817D90720F080E02C173D0708F481E061
:102C6000D183C083882351F08091A5079091A60756
:102C700002960E94180CCE010E9479140E94F11451
:102C8000882311F40E94200DDF91CF9108950F93B6
:102C90001F93CF93DF930FB6F8940F92009729F408
:102CA000C091A507D091A60701C0EC018E010E5F6F
:102CB0001F4FC8010E94180C8C899D89892B21F017
:102CC000CE010C960E94180C80E198E0B8010E9499
:102CD000C70B8091B0078F5F8093B0078091B107D9
:102CE0008F5F8093B1070F900FBE8091AF0788234D
:102CF00049F18091A5079091A607C817D90719F443
:102D00000E94200D1FC00FB6F8940F92E0910308A7
:102D1000F09104088081882319F48FEF9FEF0CC095
:102D2000E0910308F09104080580F681E02D06800B
:102D3000F781E02D828193819093BE028093BD0242
:102D40000F900FBEDF91CF911F910F910895F894CE
:102D50001092AF070E94BF0C08950F931F932CC0D1
:102D60008091AC078F5F8093AC07109110080E9490
:102D7000F114112309F10FB6F8940F92E0911508A0
:102D8000F091160806811781C80102960E94180C5E
:102D90008091AE0781508093AE078091B00781503B
:102DA0008093B0070F900FBEF8018789908D0E9425
:102DB000EA0AC8010E94EA0A8091B007882381F6D6
:102DC0008091B2078230C0F30E94200DF5CF2F9280
:102DD0003F924F925F927F928F929F92AF92BF925B
:102DE000CF92DF92EF92FF920F931F93CF93DF93D7
:102DF0001C01962E872E5A012901702EE6018FE2C2
:102E000090E00E94FA0A6C01009779F0209721F473
:102E1000C5010E94FA0AEC01F601D08FC78B2097FA
:102E200009F0CAC0C6010E94EA0A8FEFB3C08081D0
:102E300059968C9359978081882329F09F5F31960A
:102E400011969431A1F7F60114A6072DF6E0F715B7
:102E500008F406E0F601068B05A716A672E0872E99
:102E6000912C8C0C9D1CC4010E94C30BC6010C96B6
:102E70000E94C30BF601D186C08687E090E0801BDC
:102E8000910995878487D38AC28A0894A108B108DA
:102E9000CE018A0D9B1DB101A2010E94420CF601D8
:102EA00091838083E114F10419F0F701D182C0828B
:102EB0000FB6F8940F928091AE078F5F8093AE07A4
:102EC0008091A5079091A607892B79F5D092A60746
:102ED000C092A5078091AE078130B1F5C2EBD7E073
:102EE000CE010E94B30B2996F7E0C13FDF07C1F77F
:102EF00061EFE62E67E0F62EC7010E94B30B0AEFE2
:102F000017E0C8010E94B30B87E098E00E94B30B62
:102F100080E198E00E94B30BF0920408E09203086D
:102F200010930608009305080FC08091AF0788230F
:102F300059F4E091A507F091A6078689781620F04C
:102F4000D092A607C092A5078091B1078F5F8093AA
:102F5000B107F60196898091A707891710F490931D
:102F6000A70789E0989FC00111248E54984FB4019F
:102F70000E94C70B0F900FBE8091AF07882349F0C6
:102F8000E091A507F091A6078689871510F40E94A5
:102F9000200D81E0DF91CF911F910F91FF90EF9075
:102FA000DF90CF90BF90AF909F908F907F905F9079
:102FB0004F903F902F900895892D982D9C01F901F5
:102FC000D60190E034CFAF92BF92CF92DF92EF92D2
:102FD000FF920F938DEA96E168E770E045E550E0D7
:102FE00020E030E000E0EE24FF24CC24DD24AA24FD
:102FF000BB240E94E716813049F4F8948093AF0710
:103000001092AA071092A9070E948A0C0F91FF90B4
:10301000EF90DF90CF90BF90AF90089587B18F73FE
:10302000806487B986B1876086B9379A08958F71B1
:1030300097B1907E982B97B9369A3699FECF24B1E6
:1030400035B1C90108959AB321E030E002C0220FE2
:10305000331F8A95E2F7922B9ABB8BB320952823D6
:103060002BBB08959BB321E030E002C0220F331F39
:103070008A95E2F7922B9BBB08959BB321E030E049
:1030800002C0220F331F8A95E2F7209529232BBB1C
:1030900008959BB321E030E002C0220F331F8A95D0
:1030A000E2F792279BBB08959AB3982B9ABB9BB3E8
:1030B000809598239BBB08959BB3982B9BBB089549
:1030C0009BB3809598239BBB08959BB398279BBB8C
:1030D00008958AB38FEF8ABB8BB31BBA08958BB365
:1030E0008FEF8BBB08958BB31BBA08958BB380957C
:1030F0008BBB089591B321E030E002C0220F331F53
:103100008A95E2F7822F8095892381BB82B3282B91
:1031100022BB089520B330E002C0359527958A95EB
:10312000E2F72095822F817008958F9A97980895DD
:10313000979A08959798089582B3805882BB08950E
:10314000863029F0873081F0853071F51CC085B755
:103150008C7F85BF85B7862B85BF5093260840930B
:1031600025088BB780641FC085B7837F85BF85B76F
:10317000660F660F862B85BF50932808409327085B
:103180008BB7806810C0633019F484B7806404C0C2
:10319000623059F484B78F7B84BF50932A084093E0
:1031A00029088BB780628BBF789408951F920F9285
:1031B0000FB60F9211242F933F934F935F936F930A
:1031C0007F938F939F93AF93BF93EF93FF93E09180
:1031D0002508F09126080995FF91EF91BF91AF91D5
:1031E0009F918F917F916F915F914F913F912F911F
:1031F0000F900FBE0F901F9018951F920F920FB651
:103200000F9211242F933F934F935F936F937F936C
:103210008F939F93AF93BF93EF93FF93E091270812
:10322000F09128080995FF91EF91BF91AF919F917F
:103230008F917F916F915F914F913F912F910F905F
:103240000FBE0F901F9018951F920F920FB60F92FE
:1032500011242F933F934F935F936F937F938F939B
:103260009F93AF93BF93EF93FF93E0912908F09161
:103270002A080995FF91EF91BF91AF919F918F918E
:103280007F916F915F914F913F912F910F900FBE62
:103290000F901F901895C198282F207F95B39F708D
:1032A000922B95BBC09AC0988295807F95B39F70F2
:1032B000982B95BBC09AC0988AE68A95F1F7089535
:1032C00081E00E944B1980E197E20197F1F70895A0
:1032D00084B3806F84BBB99AB89A88EE93E028ECE7
:1032E00030E0F9013197F1F70197D9F782E00E94B8
:1032F0004B1988E20E944B198CE00E944B1986E022
:103300000E944B190E9460190895C19A282F207FAE
:1033100095B39F70922B95BBC09AC0988295807F81
:1033200095B39F70982B95BBC09AC0988AE68A95F2
:10333000F1F708951F93CF93DF93EC0110E003C0E2
:103340000E9485191F5FFE01E10FF11D8081882316
:10335000B9F7DF91CF911F9108950E9485190895C3
:10336000813019F4862F815802C0862F81540E9423
:103370004B1908950F931F938A010E94B019C80139
:103380000E949A191F910F9108951F93142F0E9464
:10339000B019812F0E9485191F9108950F931F93D3
:1033A000DF93CF93CDB7DEB72B970FB6F894DEBF80
:1033B0000FBECDBFDC01CB018E010F5F1F4F2BE095
:1033C000F80111922A95E9F7B8014AE050E00E940D
:1033D0003B22C8010E949A192B960FB6F894DEBFC3
:1033E0000FBECDBFCF91DF911F910F910895EF9246
:1033F000FF920F931F9379018A010E94B019C801AF
:10340000B7010E94CE191F910F91FF90EF90089580
:10341000882341F0813059F487B3806B87BBBE9815
:103420006C9A05C087B38F7487BBBE9A6C986E9AEE
:1034300008958FB9779BFECF8FB108959B01AC01A2
:1034400060E072E18AE790E00E94AE2120513040B6
:1034500040405040569547953795279520B986B7F7
:10346000846086BF089584EA86BF06B607FEFDCF56
:1034700081B190E0887F883009F491E0892F089528
:1034800084EA86BF06B607FEFDCF81B190E0887F53
:10349000803109F491E0892F089584E986BF089569
:1034A00083B984E886BF06B607FEFDCF81B140E050
:1034B00090E0887F9070262F30E08217930709F400
:1034C00041E0842F0895FC0184E886BF81B1887FA4
:1034D000803519F486B7806486BF06B607FEFDCF37
:1034E00081B190E0887F9070262F30E0821793079B
:1034F00011F080E0089583B1808381E0089584B362
:103500008F6084BB85B38F6085BB87B38F7087BBAB
:1035100088B3806F88BB0895CF93DF93E0E0F0E03D
:10352000C1E0D0E0A0EDB7E085B39E010E2E02C051
:10353000220F331F0A94E2F7922F9095982395BBA0
:10354000CD010197F1F740E050E086B3BA016C5F1E
:103550007F4F90E0062E02C0959587950A94E2F77A
:1035600080FD17C021E030E002C0220F331F6A95B2
:10357000E2F786B390E082239323892BD1F3EE0FF9
:10358000FF1FEE0FFF1FE40FF51FE154FD4F808179
:103590000EC04F5F5F4F44305105B9F685B3282BFD
:1035A00025BB3196E430F10509F0BECF80E0DF9114
:1035B000CF910895B89AB99A0895882319F0813067
:1035C00031F403C0C198C09A0895C098C19A089573
:1035D000C198C09808958FEF87BB94B3906F94BB48
:1035E00088BB85B38F7085BB089545B390E0039683
:1035F00021E030E002C0220F331F8A95E2F7422B10
:1036000045BB6E3211F48FE705C0E62FF0E0E752BC
:10361000FD4F808188BB80ED97E00197F1F785B37E
:103620002095282325BB0895982F83B7887F83BFD3
:10363000913099F0913030F09230D9F0933009F018
:1036400043C02DC083B78F7B83BF83B7877F83BF82
:1036500089B7816089BF7894089583B78F7B83BFD2
:1036600083B7886083BF83B7806183BF83B78F7D53
:103670000BC083B7806483BF83B7877F83BF83B763
:103680008F7E83BF83B7806283BFBB9A8FE78CBF77
:1036900083B78A7F83BF83B7826083BF089583B770
:1036A000806483BF83B7886083BF83B78F7E83BF07
:1036B00083B7806283BFBB9A8FE78CBF83B78A7F53
:1036C00083BF83B7826083BF089583B78A7F83BF38
:1036D00083B7826083BF089583B7887F83BF0895CF
:1036E0001092190810921A0810921B0810921C08C8
:1036F00012BE0895AB01BC0183B7887F83BF1092CF
:10370000190810921A0810921B0810921C0812BE79
:1037100083B78A7F83BF83B7826083BF8091190894
:1037200090911A08A0911B08B0911C0822B7BA2FDB
:10373000A92F982F8827820F911DA11DB11D0196D9
:10374000A11DB11D84179507A607B70738F3089583
:1037500023B7287F23BF1092190810921A081092DD
:103760001B0810921C0812BE23B72A7F23BF23B761
:10377000226023BF28EE33E040E050E00E948F211A
:10378000AB01BC018091190890911A08A0911B0807
:10379000B0911C0822B7BA2FA92F982F8827820F23
:1037A000911DA11DB11D0196A11DB11D8417950785
:1037B000A607B70738F30895843618F08FEF8CBF4B
:1037C0000895682F70E080E090E02FEF30E040E057
:1037D00050E00E948F2124E630E040E050E00E945B
:1037E000AE212CBF0895AF92BF92CF92DF92EF929D
:1037F000FF920F931F93ECB690E0AA2797FDA09538
:10380000BA2FBC01CD010E94250420E030E048EC35
:1038100052E40E9419035B016C01FF240027F7FCAE
:103820000095102FC801B7010E9425047B018C016F
:10383000C601B50120E030E04FE753E40E941F02CB
:103840009B01AC01C801B7010E94C5038823E4F0C5
:103850006CB770E0882777FD8095982F0E9425042B
:103860007B018C01C601B50120E030E04FE753EC4D
:103870000E941F029B01AC01C801B7010E94F20126
:103880000E9449006CBF01C01CBE1F910F91FF90A8
:10389000EF90DF90CF90BF90AF900895AF92BF921E
:1038A000CF92DF92EF92FF920F931F93ECB690E0CE
:1038B000AA2797FDA095BA2FBC01CD010E9425042F
:1038C00020E030E048EC52E40E94190320E030E0B0
:1038D0004FE753E40E941F025B016C01FF240027A5
:1038E000F7FC0095102FC801B7010E942504A6011E
:1038F00095010E94F20120E030E04FE753E40E947E
:10390000F503181684F06CB770E0882777FD809572
:10391000982F0E942504A60195010E94F2010E94A1
:1039200049006CBF02C08FEF8CBF1F910F91FF90B9
:10393000EF90DF90CF90BF90AF900895CF92DF923D
:10394000EF92FF920F931F936C017A018B0180E03D
:103950000E94141BD0922C08C0922B0810921908B8
:1039600010921A0810921B0810921C08C801B70187
:1039700028EE33E040E050E00E948F21672F782F3F
:10398000892F992760931D0870931E0880931F0844
:103990009093200883B78A7F83BF83B7826083BFF9
:1039A0001F910F91FF90EF90DF90CF9008951F929D
:1039B0000F920FB60F9211242F933F934F935F9363
:1039C0006F937F938F939F93AF93BF93EF93FF93E7
:1039D0008091190890911A08A0911B08B0911C08B9
:1039E0000196A11DB11D8093190890931A08A09308
:1039F0001B08B0931C082091190830911A084091B7
:103A00001B0850911C0880911D0890911E08A091E0
:103A10001F08B0912008281739074A075B0741F4AF
:103A2000E0912B08F0912C08099583B7887F83BF1C
:103A3000FF91EF91BF91AF919F918F917F916F9186
:103A40005F914F913F912F910F900FBE0F901F905C
:103A500018959B01AC0194E0220F331F441F551FA2
:103A60009A95D1F760E072E18AE790E00E94AE217A
:103A7000215030404040504080B58F7780BDBB27FB
:103A8000A52F942F832F80BD29B988E18AB986E8B4
:103A900080BD08955D9BFECF8CB90895FC015F9BAE
:103AA000FECF8CB180830895FC015F9902C080E055
:103AB00008958CB1808381E00895FC0104C05D9B72
:103AC000FECF8CB9319680818823C9F708951F9263
:103AD0000F920FB60F9211242F933F934F935F9342
:103AE0006F937F938F939F93AF93BF93EF93FF93C6
:103AF0004CB182E090E065E070E050E00E94C519B2
:103B0000FF91EF91BF91AF919F918F917F916F91B5
:103B10005F914F913F912F910F900FBE0F901F908B
:103B200018952F923F924F925F926F927F928F9251
:103B30009F92AF92BF92CF92DF92EF92FF920F933C
:103B40001F93DF93CF93CDB7DEB76F970FB6F8947F
:103B5000DEBF0FBECDBF19828AE032E0A32EB12CAA
:103B6000AC0EBD1EF501982F11929A95E9F78E01C2
:103B7000045F1F4FF801982F11929A95E9F726E1FB
:103B8000C22ED12CCC0EDD1EF60111928A95E9F7DA
:103B90008DE790E00E945D1D7E010894E11CF11C00
:103BA00048019DE0292E312C2C0E3D1E260187E177
:103BB000682E712C6C0E7D1E809121089091220838
:103BC00060E270E041E021E00FEF1FEF0E94E409A6
:103BD000809323089093240885FFABC0C7010E94FF
:103BE0004E1D8981833209F0A4C000E08DE890E089
:103BF0000E945D1DC7010E944E1D10E014C0E12F00
:103C0000F0E0A2E0B0E0AC0FBD1FAE0FBF1F8C9381
:103C100083E090E08C0F9D1FE80FF91F1082C70111
:103C20000E944E1D1F5F89818D3049F70F5FC501CE
:103C30006FEC72E00E942B22009719F00330B1F66E
:103C40007DC0C5016FEC72E00E942B22009709F045
:103C50006CC08EE990E00E945D1DC7010E944E1D60
:103C600010E00DC0E12FF0E0D401AE0FBF1F8C9328
:103C7000E20DF31D1082C7010E944E1D1F5F898156
:103C80008D3081F78DEA90E00E945D1DC7010E9492
:103C90004E1D10E00DC0E12FF0E0D201AE0FBF1FAE
:103CA0008C93E60DF71D1082C7010E944E1D1F5F09
:103CB00089818D3081F7C401B6010E942B220097C3
:103CC00019F18CED90E00E945D1D8AEF90E00E945A
:103CD0005D1DC7010E944E1D10E00DC0E12FF0E0F8
:103CE000D201AE0FBF1F8C93E60DF71D1082C701E6
:103CF0000E944E1D1F5F89818D3081F7C401B6017E
:103D00000E942B22009789F48FEC92E0B6010E946A
:103D1000342284EC90E00E945D1D8FEC92E00E94C2
:103D20005D1D89ED90E00E945D1D89ED90E00E948F
:103D30005D1D82E390E00E94E8153ECF87E191E0AF
:103D40000E945D1D7ECF8F929F92AF92BF92CF92C5
:103D5000DF92EF92FF920F931F93DF93CF93CDB734
:103D6000DEB72B970FB6F894DEBF0FBECDBF19821A
:103D700052E0C52ED12CCC0EDD1E8AE0F601119248
:103D80008A95E9F788E291E00E945D1D7E01089422
:103D9000E11CF11C460143E0A42EB12CAC0EBD1E6B
:103DA000809121089091220868E070E041E021E0D4
:103DB0000FEF1FEF0E94E4098093230890932408DB
:103DC00083FF57C0C7010E944E1D89818A3209F0C6
:103DD00050C0C7010E944E1D89818033B9F18133E3
:103DE00009F043C0C7010E944E1D89818332E9F565
:103DF00000E08DE890E00E945D1DC7010E944E1D0D
:103E000010E00DC0E12FF0E0D401AE0FBF1F8C9386
:103E1000EA0DFB1D1082C7010E944E1D1F5F8981A4
:103E20008D3081F70F5FC6016FEC72E00E942B228C
:103E3000009719F00330E9F621C0C6016FEC72E07B
:103E40000E942B22009789F480E007C0C7010E94DE
:103E50004E1D8981833249F481E00E94DD1A84EF8E
:103E600091E00E94E8150E94E81A89ED90E00E9416
:103E70005D1D82E390E00E94E81592CF87E191E01A
:103E80000E945D1DDACFEF92FF920F931F93DF9395
:103E9000CF930F92CDB7DEB7198281E391E00E94F4
:103EA0005D1D7E010894E11CF11C80912108909118
:103EB000220864E070E041E021E00FEF1FEF0E9474
:103EC000E409809323089093240882FF78C0C701F7
:103ED0000E944E1D89818A3209F071C0C7010E947B
:103EE0004E1D8981823341F1833309F443C081330C
:103EF00009F061C0C7010E944E1D89818A3209F014
:103F00005AC0C7010E944E1D8981803361F0813300
:103F100009F051C0C7010E944E1D8981833209F00A
:103F20004AC081E03CC0C7010E944E1D8981833296
:103F300009F041C081E03DC0C7010E944E1D89814A
:103F40008A32C9F5C7010E944E1D8981803351F024
:103F5000813389F5C7010E944E1D8981833259F54D
:103F600082E01DC0C7010E944E1D8981833219F570
:103F700082E01FC0C7010E944E1D89818A32D9F498
:103F8000C7010E944E1D8981803361F0813399F40D
:103F9000C7010E944E1D8981833269F483E00E942B
:103FA000321809C0C7010E944E1D8981833219F45D
:103FB00083E00E943D1889ED90E00E945D1D82E340
:103FC00090E00E94E81571CF0F931F938EE391E06C
:103FD0000E945D1D809121089091220863E170E0AC
:103FE00040E020E00FEF1FEF0E94E40990932408C7
:103FF00080932308837190708130910539F484E0B7
:104000000E943D1885E00E9432180FC08230910551
:1040100021F484E00E94321805C04097D9F684E06C
:104020000E943D1885E00E943D1882E390E00E94C6
:10403000E815D0CF0F931F93DF93CF930F92CDB797
:10404000DEB719828EE491E00E945D1D8E010F5F44
:104050001F4FC8010E94541D89818A3209F5C80189
:104060000E944E1D8981893429F0803589F0813480
:10407000B9F407C0809121089091220864E070E0B3
:104080000DC0809121089091220868E070E006C080
:10409000809121089091220860E270E00E948809D6
:1040A00082E390E00E94E815D4CFEF92FF920F9345
:1040B0001F9385E591E00E945D1DEE24FF2487019A
:1040C0008EE1E816F1040105110590F580912108B3
:1040D0009091220861E070E00E94590980912108C6
:1040E0009091220860E170E00E94880980E00E94BF
:1040F0001718A0E0B0E0BC01CD0124EF31E040E0B2
:1041000050E00E948F212FEF33E040E050E00E940A
:10411000AE21C901DA017C018D0182E390E00E94A9
:10412000E8158EE1E816F10401051105F8F287C0E3
:10413000D801C7014E97A109B1090697A105B1059C
:1041400008F03EC0809121089091220860E170E063
:104150000E945909809121089091220862E070E044
:104160000E945909809121089091220861E070E035
:104170000E9488091BC080E00E941718A0E0B0E0F0
:10418000BC01CD0124EF31E040E050E00E948F21DE
:104190002FEF33E040E050E00E94AE21C901DA0188
:1041A0007C018D0182E390E00E94E815D801C701EF
:1041B0004E97A109B1090697A105B105E0F23FC0EC
:1041C00084E2E816F10401051105C8F18091210887
:1041D0009091220860E170E00E94590980912108C5
:1041E0009091220861E070E00E94590980912108B5
:1041F0009091220862E070E00E94880980E00E94AD
:104200001718A0E0B0E0BC01CD0124EF31E040E0A0
:1042100050E00E948F212FEF33E040E050E00E94F9
:10422000AE21C901DA017C018D0182E390E00E9498
:10423000E81584E2E816F10401051105F8F682E3B9
:1042400090E00E94E8153CCF60E875E280E090E0E5
:104250000E94291D0E9469180E94DA1A0E940E18F5
:1042600084E691E00E945D1D0895AF92BF92CF92C7
:10427000DF92EF92FF920F930E9424210E94D70AAF
:10428000909322088093210885E590E263E771E02E
:1042900048E750E020E030E001E0EE24FF24CC24A9
:1042A000DD24AA24BB240E94E71684EE9FE160E887
:1042B00071E048E750E020E030E002E00E94E716BD
:1042C0008AE190E26EE871E048E750E020E030E0FB
:1042D00003E00E94E71683E49FE165E971E048E7A7
:1042E00050E020E030E004E00E94E71683EA9EE11F
:1042F00060EA71E048E750E020E030E005E00E942D
:10430000E71681E99DE167EA71E048E750E020E0C7
:1043100030E006E00E94E7160E94E317FFCF629F9D
:10432000D001739FF001829FE00DF11D649FE00DAD
:10433000F11D929FF00D839FF00D749FF00D659F0E
:10434000F00D9927729FB00DE11DF91F639FB00D0D
:10435000E11DF91FBD01CF0111240895A1E21A2E1C
:10436000AA1BBB1BFD010DC0AA1FBB1FEE1FFF1F19
:10437000A217B307E407F50720F0A21BB30BE40B69
:10438000F50B661F771F881F991F1A9469F76095B0
:104390007095809590959B01AC01BD01CF0108956A
:1043A00097FB092E05260ED057FD04D0D7DF0AD083
:1043B000001C38F450954095309521953F4F4F4F54
:1043C0005F4F0895F6F790958095709561957F4FB2
:1043D0008F4F9F4F08952F923F924F925F926F920F
:1043E0007F928F929F92AF92BF92CF92DF92EF9285
:1043F000FF920F931F93CF93DF93CDB7DEB7CA1B06
:10440000DB0B0FB6F894DEBF0FBECDBF09942A8830
:10441000398848885F846E847D848C849B84AA84D8
:10442000B984C884DF80EE80FD800C811B81AA8165
:10443000B981CE0FD11D0FB6F894DEBF0FBECDBF30
:10444000ED010895FB01DC0102C001900D92415085
:104450005040D8F70895FB01DC018D91019080193F
:104460000110D9F3990B0895FB01DC0101900D9225
:104470000020E1F70895FB019F01E8944230C4F069
:104480004532B4F44A3029F497FB1EF49095819597
:104490009F4F642F77270E946C22805D8A330CF037
:1044A000895D8193CB010097A1F716F45DE25193EA
:1044B0001082C9010C945C22DC01FC01672F719110
:1044C0007723E1F7329704C07C916D9370836291FA
:1044D000AE17BF07C8F30895AA1BBB1B51E107C065
:1044E000AA1FBB1FA617B70710F0A61BB70B881F84
:1044F000991F5A95A9F780959095BC01CD01089513
:04450000F894FFCF5D
:1045040051436F6E734E42005150726F644E4200BD
:10451400496E744D6174680049444C4500545F4EC3
:10452400657750617373576F72640D0A00456E743A
:1045340065722050617373576F72640D0A004E6583
:10454400772050617373576F72640D0A005265656A
:104554006E746572204E65772050617373576F7265
:10456400640D0A0070617373776F7264206973203D
:104574007570646174650D0A000D0A0070617373CF
:10458400776F72647320617265206E6F7420746833
:10459400652073616D65200D0A005265656E746552
:1045A40072204E65772050617373576F7264206177
:1045B4006761696E0D0A0057726F6E6720506173F0
:1045C40073576F72640D0A00545F446F6F720D0A63
:1045D40000545F526F6F6D4C6564730D0A00545F35
:1045E40054656D70436F6E74726F6C0D0A005541A3
:1045F40052540D0A00545F54656D704465746563CC
:10460400740D0A0053797374656D20537461727468
:104614000D0A00545F54656D7044657465637400DD
:10462400545F54656D70436F6E74726F6C00545FA9
:104634005561727400545F526F6F6D4C6564730002
:10464400545F446F6F7200545F4E657750617373AB
:10465400576F7264000000000000000000000102B7
:104664000203030303040404040404040405050509
:1046740005050505050505050505050505060606E3
:1046840006060606060606060606060606060606C6
:1046940006060606060606060606060606070707B3
:1046A4000707070707070707070707070707070796
:1046B4000707070707070707070707070707070786
:1046C4000707070707070707070707070707070776
:1046D4000707070707070707070707070708080863
:1046E4000808080808080808080808080808080846
:1046F4000808080808080808080808080808080836
:104704000808080808080808080808080808080825
:104714000808080808080808080808080808080815
:104724000808080808080808080808080808080805
:1047340008080808080808080808080808080808F5
:1047440008080808080808080808080808080808E5
:1047540008080808080808080808080808FFFF37B8
:1047640038392F3435362A3132332D63303D2B31ED
:10477400323300000000000000C0F9A4B099928216
:04478400F880907FAA
:00000001FF
